{
  "contractName": "MessageApp",
  "abi": [
    {
      "anonymous": false,
      "inputs": [
        {
          "indexed": false,
          "internalType": "string",
          "name": "message",
          "type": "string"
        }
      ],
      "name": "MessageSent",
      "type": "event"
    },
    {
      "inputs": [
        {
          "internalType": "uint256",
          "name": "",
          "type": "uint256"
        }
      ],
      "name": "messages",
      "outputs": [
        {
          "internalType": "string",
          "name": "",
          "type": "string"
        }
      ],
      "stateMutability": "view",
      "type": "function"
    },
    {
      "inputs": [
        {
          "internalType": "string",
          "name": "_message",
          "type": "string"
        }
      ],
      "name": "sendMessage",
      "outputs": [],
      "stateMutability": "nonpayable",
      "type": "function"
    },
    {
      "inputs": [],
      "name": "getAllMessages",
      "outputs": [
        {
          "internalType": "string[]",
          "name": "",
          "type": "string[]"
        }
      ],
      "stateMutability": "view",
      "type": "function"
    }
  ],
  "bytecode": "0x608060405234801561001057600080fd5b50610775806100206000396000f3fe608060405234801561001057600080fd5b50600436106100415760003560e01c80630d80fefd14610046578063469c81101461007657806353f5e38014610092575b600080fd5b610060600480360381019061005b919061040c565b6100b0565b60405161006d9190610552565b60405180910390f35b610090600480360381019061008b91906103cb565b61015c565b005b61009a6101d2565b6040516100a79190610530565b60405180910390f35b600081815481106100c057600080fd5b9060005260206000200160009150905080546100db90610687565b80601f016020809104026020016040519081016040528092919081815260200182805461010790610687565b80156101545780601f1061012957610100808354040283529160200191610154565b820191906000526020600020905b81548152906001019060200180831161013757829003601f168201915b505050505081565b6000819080600181540180825580915050600190039060005260206000200160009091909190915090805190602001906101979291906102ab565b507fbdc68c10503e06bda29a088fc440065f6f48d934e35de224cfd493a67ca3127b816040516101c79190610552565b60405180910390a150565b60606000805480602002602001604051908101604052809291908181526020016000905b828210156102a257838290600052602060002001805461021590610687565b80601f016020809104026020016040519081016040528092919081815260200182805461024190610687565b801561028e5780601f106102635761010080835404028352916020019161028e565b820191906000526020600020905b81548152906001019060200180831161027157829003601f168201915b5050505050815260200190600101906101f6565b50505050905090565b8280546102b790610687565b90600052602060002090601f0160209004810192826102d95760008555610320565b82601f106102f257805160ff1916838001178555610320565b82800160010185558215610320579182015b8281111561031f578251825591602001919060010190610304565b5b50905061032d9190610331565b5090565b5b8082111561034a576000816000905550600101610332565b5090565b600061036161035c846105a5565b610574565b90508281526020810184848401111561037957600080fd5b610384848285610645565b509392505050565b600082601f83011261039d57600080fd5b81356103ad84826020860161034e565b91505092915050565b6000813590506103c581610728565b92915050565b6000602082840312156103dd57600080fd5b600082013567ffffffffffffffff8111156103f757600080fd5b6104038482850161038c565b91505092915050565b60006020828403121561041e57600080fd5b600061042c848285016103b6565b91505092915050565b600061044183836104be565b905092915050565b6000610454826105e5565b61045e8185610608565b935083602082028501610470856105d5565b8060005b858110156104ac578484038952815161048d8582610435565b9450610498836105fb565b925060208a01995050600181019050610474565b50829750879550505050505092915050565b60006104c9826105f0565b6104d38185610619565b93506104e3818560208601610654565b6104ec81610717565b840191505092915050565b6000610502826105f0565b61050c818561062a565b935061051c818560208601610654565b61052581610717565b840191505092915050565b6000602082019050818103600083015261054a8184610449565b905092915050565b6000602082019050818103600083015261056c81846104f7565b905092915050565b6000604051905081810181811067ffffffffffffffff8211171561059b5761059a6106e8565b5b8060405250919050565b600067ffffffffffffffff8211156105c0576105bf6106e8565b5b601f19601f8301169050602081019050919050565b6000819050602082019050919050565b600081519050919050565b600081519050919050565b6000602082019050919050565b600082825260208201905092915050565b600082825260208201905092915050565b600082825260208201905092915050565b6000819050919050565b82818337600083830152505050565b60005b83811015610672578082015181840152602081019050610657565b83811115610681576000848401525b50505050565b6000600282049050600182168061069f57607f821691505b602082108114156106b3576106b26106b9565b5b50919050565b7f4e487b7100000000000000000000000000000000000000000000000000000000600052602260045260246000fd5b7f4e487b7100000000000000000000000000000000000000000000000000000000600052604160045260246000fd5b6000601f19601f8301169050919050565b6107318161063b565b811461073c57600080fd5b5056fea264697066735822122088d031b5c2d66b1c3ee8c5af6093556e6e7ce3afdb1be2ea2c21b4447c5e063364736f6c63430008000033",
  "immutableReferences": {},
  "source": "// contracts/MessageApp.sol\r\n// SPDX-License-Identifier: MIT\r\npragma solidity ^0.8.0;\r\n\r\ncontract MessageApp {\r\n    string[] public messages;\r\n\r\n    event MessageSent(string message);\r\n\r\n    function sendMessage(string memory _message) public {\r\n        messages.push(_message);\r\n        emit MessageSent(_message);\r\n    }\r\n\r\n    function getAllMessages() public view returns (string[] memory) {\r\n        return messages;\r\n    }\r\n}\r\n",
  "sourcePath": "C:\\Users\\Ninja\\Desktop\\dump\\peris\\SimpleMessagingApp\\contracts\\MessageApp.sol",
  "compiler": {
    "name": "solc",
    "version": "0.8.0+commit.c7dfd78e.Emscripten.clang"
  },
  "schemaVersion": "3.4.16",
  "updatedAt": "2024-11-25T12:04:25.622Z",
  "devdoc": {
    "kind": "dev",
    "methods": {},
    "version": 1
  },
  "userdoc": {
    "kind": "user",
    "methods": {},
    "version": 1
  }
}